{
  "_format": "hh-sol-artifact-1",
  "contractName": "CloudStorage",
  "sourceName": "contracts/CloudStorage.sol",
  "abi": [
    {
      "anonymous": false,
      "inputs": [
        {
          "indexed": true,
          "internalType": "address",
          "name": "owner",
          "type": "address"
        },
        {
          "indexed": false,
          "internalType": "uint256",
          "name": "index",
          "type": "uint256"
        },
        {
          "indexed": false,
          "internalType": "string",
          "name": "fileId",
          "type": "string"
        }
      ],
      "name": "FileDeleted",
      "type": "event"
    },
    {
      "anonymous": false,
      "inputs": [
        {
          "indexed": true,
          "internalType": "address",
          "name": "owner",
          "type": "address"
        },
        {
          "indexed": false,
          "internalType": "uint256",
          "name": "index",
          "type": "uint256"
        },
        {
          "indexed": false,
          "internalType": "string",
          "name": "oldName",
          "type": "string"
        },
        {
          "indexed": false,
          "internalType": "string",
          "name": "newName",
          "type": "string"
        }
      ],
      "name": "FileRenamed",
      "type": "event"
    },
    {
      "anonymous": false,
      "inputs": [
        {
          "indexed": true,
          "internalType": "address",
          "name": "owner",
          "type": "address"
        },
        {
          "indexed": false,
          "internalType": "string",
          "name": "fileId",
          "type": "string"
        },
        {
          "indexed": false,
          "internalType": "string",
          "name": "ipfsHash",
          "type": "string"
        },
        {
          "indexed": false,
          "internalType": "string",
          "name": "fileName",
          "type": "string"
        },
        {
          "indexed": false,
          "internalType": "uint256",
          "name": "fileSize",
          "type": "uint256"
        },
        {
          "indexed": false,
          "internalType": "uint256",
          "name": "uploadTime",
          "type": "uint256"
        },
        {
          "indexed": false,
          "internalType": "bool",
          "name": "isEncrypted",
          "type": "bool"
        }
      ],
      "name": "FileUploaded",
      "type": "event"
    },
    {
      "inputs": [
        {
          "internalType": "uint256",
          "name": "_index",
          "type": "uint256"
        }
      ],
      "name": "deleteFile",
      "outputs": [],
      "stateMutability": "nonpayable",
      "type": "function"
    },
    {
      "inputs": [
        {
          "internalType": "uint256",
          "name": "_index",
          "type": "uint256"
        }
      ],
      "name": "getFile",
      "outputs": [
        {
          "components": [
            {
              "internalType": "string",
              "name": "fileId",
              "type": "string"
            },
            {
              "internalType": "string",
              "name": "ipfsHash",
              "type": "string"
            },
            {
              "internalType": "string",
              "name": "fileName",
              "type": "string"
            },
            {
              "internalType": "uint256",
              "name": "fileSize",
              "type": "uint256"
            },
            {
              "internalType": "uint256",
              "name": "uploadTime",
              "type": "uint256"
            },
            {
              "internalType": "address",
              "name": "owner",
              "type": "address"
            },
            {
              "internalType": "bool",
              "name": "isEncrypted",
              "type": "bool"
            }
          ],
          "internalType": "struct CloudStorage.File",
          "name": "",
          "type": "tuple"
        }
      ],
      "stateMutability": "view",
      "type": "function"
    },
    {
      "inputs": [],
      "name": "getFileCount",
      "outputs": [
        {
          "internalType": "uint256",
          "name": "",
          "type": "uint256"
        }
      ],
      "stateMutability": "view",
      "type": "function"
    },
    {
      "inputs": [],
      "name": "getMyFiles",
      "outputs": [
        {
          "components": [
            {
              "internalType": "string",
              "name": "fileId",
              "type": "string"
            },
            {
              "internalType": "string",
              "name": "ipfsHash",
              "type": "string"
            },
            {
              "internalType": "string",
              "name": "fileName",
              "type": "string"
            },
            {
              "internalType": "uint256",
              "name": "fileSize",
              "type": "uint256"
            },
            {
              "internalType": "uint256",
              "name": "uploadTime",
              "type": "uint256"
            },
            {
              "internalType": "address",
              "name": "owner",
              "type": "address"
            },
            {
              "internalType": "bool",
              "name": "isEncrypted",
              "type": "bool"
            }
          ],
          "internalType": "struct CloudStorage.File[]",
          "name": "",
          "type": "tuple[]"
        }
      ],
      "stateMutability": "view",
      "type": "function"
    },
    {
      "inputs": [
        {
          "internalType": "uint256",
          "name": "_index",
          "type": "uint256"
        },
        {
          "internalType": "string",
          "name": "_newName",
          "type": "string"
        }
      ],
      "name": "renameFile",
      "outputs": [],
      "stateMutability": "nonpayable",
      "type": "function"
    },
    {
      "inputs": [
        {
          "internalType": "string",
          "name": "_fileId",
          "type": "string"
        },
        {
          "internalType": "string",
          "name": "_ipfsHash",
          "type": "string"
        },
        {
          "internalType": "string",
          "name": "_fileName",
          "type": "string"
        },
        {
          "internalType": "uint256",
          "name": "_fileSize",
          "type": "uint256"
        },
        {
          "internalType": "bool",
          "name": "_isEncrypted",
          "type": "bool"
        }
      ],
      "name": "uploadFile",
      "outputs": [],
      "stateMutability": "nonpayable",
      "type": "function"
    }
  ],
  "bytecode": "0x608060405234801561001057600080fd5b5061203b806100206000396000f3fe608060405234801561001057600080fd5b50600436106100625760003560e01c80632bfda3131461006757806390a4b0df14610097578063bab50cc9146100b5578063c32c7c13146100d3578063c5b42006146100ef578063f55e24661461010b575b600080fd5b610081600480360381019061007c919061123c565b610127565b60405161008e919061140e565b60405180910390f35b61009f61045d565b6040516100ac919061159c565b60405180910390f35b6100bd610733565b6040516100ca91906115cd565b60405180910390f35b6100ed60048036038101906100e8919061171d565b61077c565b005b6101096004803603810190610104919061123c565b6109f7565b005b610125600480360381019061012091906117a5565b610e9f565b005b61012f611140565b6000803373ffffffffffffffffffffffffffffffffffffffff1673ffffffffffffffffffffffffffffffffffffffff1681526020019081526020016000208054905082106101b2576040517f08c379a00000000000000000000000000000000000000000000000000000000081526004016101a9906118d1565b60405180910390fd5b6000803373ffffffffffffffffffffffffffffffffffffffff1673ffffffffffffffffffffffffffffffffffffffff1681526020019081526020016000208281548110610202576102016118f1565b5b90600052602060002090600602016040518060e001604052908160008201805461022b9061194f565b80601f01602080910402602001604051908101604052809291908181526020018280546102579061194f565b80156102a45780601f10610279576101008083540402835291602001916102a4565b820191906000526020600020905b81548152906001019060200180831161028757829003601f168201915b505050505081526020016001820180546102bd9061194f565b80601f01602080910402602001604051908101604052809291908181526020018280546102e99061194f565b80156103365780601f1061030b57610100808354040283529160200191610336565b820191906000526020600020905b81548152906001019060200180831161031957829003601f168201915b5050505050815260200160028201805461034f9061194f565b80601f016020809104026020016040519081016040528092919081815260200182805461037b9061194f565b80156103c85780601f1061039d576101008083540402835291602001916103c8565b820191906000526020600020905b8154815290600101906020018083116103ab57829003601f168201915b5050505050815260200160038201548152602001600482015481526020016005820160009054906101000a900473ffffffffffffffffffffffffffffffffffffffff1673ffffffffffffffffffffffffffffffffffffffff1673ffffffffffffffffffffffffffffffffffffffff1681526020016005820160149054906101000a900460ff1615151515815250509050919050565b60606000803373ffffffffffffffffffffffffffffffffffffffff1673ffffffffffffffffffffffffffffffffffffffff168152602001908152602001600020805480602002602001604051908101604052809291908181526020016000905b8282101561072a57838290600052602060002090600602016040518060e00160405290816000820180546104f09061194f565b80601f016020809104026020016040519081016040528092919081815260200182805461051c9061194f565b80156105695780601f1061053e57610100808354040283529160200191610569565b820191906000526020600020905b81548152906001019060200180831161054c57829003601f168201915b505050505081526020016001820180546105829061194f565b80601f01602080910402602001604051908101604052809291908181526020018280546105ae9061194f565b80156105fb5780601f106105d0576101008083540402835291602001916105fb565b820191906000526020600020905b8154815290600101906020018083116105de57829003601f168201915b505050505081526020016002820180546106149061194f565b80601f01602080910402602001604051908101604052809291908181526020018280546106409061194f565b801561068d5780601f106106625761010080835404028352916020019161068d565b820191906000526020600020905b81548152906001019060200180831161067057829003601f168201915b5050505050815260200160038201548152602001600482015481526020016005820160009054906101000a900473ffffffffffffffffffffffffffffffffffffffff1673ffffffffffffffffffffffffffffffffffffffff1673ffffffffffffffffffffffffffffffffffffffff1681526020016005820160149054906101000a900460ff161515151581525050815260200190600101906104bd565b50505050905090565b60008060003373ffffffffffffffffffffffffffffffffffffffff1673ffffffffffffffffffffffffffffffffffffffff16815260200190815260200160002080549050905090565b6000803373ffffffffffffffffffffffffffffffffffffffff1673ffffffffffffffffffffffffffffffffffffffff1681526020019081526020016000208054905082106107ff576040517f08c379a00000000000000000000000000000000000000000000000000000000081526004016107f6906118d1565b60405180910390fd5b6000815111610843576040517f08c379a000000000000000000000000000000000000000000000000000000000815260040161083a906119cc565b60405180910390fd5b60008060003373ffffffffffffffffffffffffffffffffffffffff1673ffffffffffffffffffffffffffffffffffffffff1681526020019081526020016000208381548110610895576108946118f1565b5b906000526020600020906006020160020180546108b19061194f565b80601f01602080910402602001604051908101604052809291908181526020018280546108dd9061194f565b801561092a5780601f106108ff5761010080835404028352916020019161092a565b820191906000526020600020905b81548152906001019060200180831161090d57829003601f168201915b50505050509050816000803373ffffffffffffffffffffffffffffffffffffffff1673ffffffffffffffffffffffffffffffffffffffff1681526020019081526020016000208481548110610982576109816118f1565b5b9060005260206000209060060201600201908161099f9190611b98565b503373ffffffffffffffffffffffffffffffffffffffff167f1b92805a13f2a3aaae8bb07149c963127d3670d447e4782488078146cb09110a8483856040516109ea93929190611ca3565b60405180910390a2505050565b6000803373ffffffffffffffffffffffffffffffffffffffff1673ffffffffffffffffffffffffffffffffffffffff168152602001908152602001600020805490508110610a7a576040517f08c379a0000000000000000000000000000000000000000000000000000000008152600401610a71906118d1565b60405180910390fd5b60008060003373ffffffffffffffffffffffffffffffffffffffff1673ffffffffffffffffffffffffffffffffffffffff1681526020019081526020016000208281548110610acc57610acb6118f1565b5b90600052602060002090600602016000018054610ae89061194f565b80601f0160208091040260200160405190810160405280929190818152602001828054610b149061194f565b8015610b615780601f10610b3657610100808354040283529160200191610b61565b820191906000526020600020905b815481529060010190602001808311610b4457829003601f168201915b50505050509050600060016000803373ffffffffffffffffffffffffffffffffffffffff1673ffffffffffffffffffffffffffffffffffffffff16815260200190815260200160002080549050610bb89190611d17565b9050808314610d68576000803373ffffffffffffffffffffffffffffffffffffffff1673ffffffffffffffffffffffffffffffffffffffff1681526020019081526020016000208181548110610c1157610c106118f1565b5b90600052602060002090600602016000803373ffffffffffffffffffffffffffffffffffffffff1673ffffffffffffffffffffffffffffffffffffffff1681526020019081526020016000208481548110610c6f57610c6e6118f1565b5b906000526020600020906006020160008201816000019081610c919190611d61565b5060018201816001019081610ca69190611d61565b5060028201816002019081610cbb9190611d61565b5060038201548160030155600482015481600401556005820160009054906101000a900473ffffffffffffffffffffffffffffffffffffffff168160050160006101000a81548173ffffffffffffffffffffffffffffffffffffffff021916908373ffffffffffffffffffffffffffffffffffffffff1602179055506005820160149054906101000a900460ff168160050160146101000a81548160ff0219169083151502179055509050505b6000803373ffffffffffffffffffffffffffffffffffffffff1673ffffffffffffffffffffffffffffffffffffffff168152602001908152602001600020805480610db657610db5611e49565b5b600190038181906000526020600020906006020160008082016000610ddb9190611195565b600182016000610deb9190611195565b600282016000610dfb9190611195565b600382016000905560048201600090556005820160006101000a81549073ffffffffffffffffffffffffffffffffffffffff02191690556005820160146101000a81549060ff0219169055505090553373ffffffffffffffffffffffffffffffffffffffff167f8754a9e4654dc5f6a7f13fc5019fac2b82f6155aedc007dd7352a2e23f95d8288484604051610e92929190611e78565b60405180910390a2505050565b6000855111610ee3576040517f08c379a0000000000000000000000000000000000000000000000000000000008152600401610eda90611ef4565b60405180910390fd5b6000835111610f27576040517f08c379a0000000000000000000000000000000000000000000000000000000008152600401610f1e906119cc565b60405180910390fd5b60008211610f6a576040517f08c379a0000000000000000000000000000000000000000000000000000000008152600401610f6190611f60565b60405180910390fd5b60006040518060e001604052808781526020018681526020018581526020018481526020014281526020013373ffffffffffffffffffffffffffffffffffffffff16815260200183151581525090506000803373ffffffffffffffffffffffffffffffffffffffff1673ffffffffffffffffffffffffffffffffffffffff16815260200190815260200160002081908060018154018082558091505060019003906000526020600020906006020160009091909190915060008201518160000190816110369190611b98565b50602082015181600101908161104c9190611b98565b5060408201518160020190816110629190611b98565b50606082015181600301556080820151816004015560a08201518160050160006101000a81548173ffffffffffffffffffffffffffffffffffffffff021916908373ffffffffffffffffffffffffffffffffffffffff16021790555060c08201518160050160146101000a81548160ff02191690831515021790555050503373ffffffffffffffffffffffffffffffffffffffff167f3a9a629676376005439ecf948833f071e32dc2c422b9e3df3639adcec145770e87878787428860405161113096959493929190611f8f565b60405180910390a2505050505050565b6040518060e001604052806060815260200160608152602001606081526020016000815260200160008152602001600073ffffffffffffffffffffffffffffffffffffffff1681526020016000151581525090565b5080546111a19061194f565b6000825580601f106111b357506111d2565b601f0160209004906000526020600020908101906111d191906111d5565b5b50565b5b808211156111ee5760008160009055506001016111d6565b5090565b6000604051905090565b600080fd5b600080fd5b6000819050919050565b61121981611206565b811461122457600080fd5b50565b60008135905061123681611210565b92915050565b600060208284031215611252576112516111fc565b5b600061126084828501611227565b91505092915050565b600081519050919050565b600082825260208201905092915050565b60005b838110156112a3578082015181840152602081019050611288565b60008484015250505050565b6000601f19601f8301169050919050565b60006112cb82611269565b6112d58185611274565b93506112e5818560208601611285565b6112ee816112af565b840191505092915050565b61130281611206565b82525050565b600073ffffffffffffffffffffffffffffffffffffffff82169050919050565b600061133382611308565b9050919050565b61134381611328565b82525050565b60008115159050919050565b61135e81611349565b82525050565b600060e083016000830151848203600086015261138182826112c0565b9150506020830151848203602086015261139b82826112c0565b915050604083015184820360408601526113b582826112c0565b91505060608301516113ca60608601826112f9565b5060808301516113dd60808601826112f9565b5060a08301516113f060a086018261133a565b5060c083015161140360c0860182611355565b508091505092915050565b600060208201905081810360008301526114288184611364565b905092915050565b600081519050919050565b600082825260208201905092915050565b6000819050602082019050919050565b600060e083016000830151848203600086015261147982826112c0565b9150506020830151848203602086015261149382826112c0565b915050604083015184820360408601526114ad82826112c0565b91505060608301516114c260608601826112f9565b5060808301516114d560808601826112f9565b5060a08301516114e860a086018261133a565b5060c08301516114fb60c0860182611355565b508091505092915050565b6000611512838361145c565b905092915050565b6000602082019050919050565b600061153282611430565b61153c818561143b565b93508360208202850161154e8561144c565b8060005b8581101561158a578484038952815161156b8582611506565b94506115768361151a565b925060208a01995050600181019050611552565b50829750879550505050505092915050565b600060208201905081810360008301526115b68184611527565b905092915050565b6115c781611206565b82525050565b60006020820190506115e260008301846115be565b92915050565b600080fd5b600080fd5b7f4e487b7100000000000000000000000000000000000000000000000000000000600052604160045260246000fd5b61162a826112af565b810181811067ffffffffffffffff82111715611649576116486115f2565b5b80604052505050565b600061165c6111f2565b90506116688282611621565b919050565b600067ffffffffffffffff821115611688576116876115f2565b5b611691826112af565b9050602081019050919050565b82818337600083830152505050565b60006116c06116bb8461166d565b611652565b9050828152602081018484840111156116dc576116db6115ed565b5b6116e784828561169e565b509392505050565b600082601f830112611704576117036115e8565b5b81356117148482602086016116ad565b91505092915050565b60008060408385031215611734576117336111fc565b5b600061174285828601611227565b925050602083013567ffffffffffffffff81111561176357611762611201565b5b61176f858286016116ef565b9150509250929050565b61178281611349565b811461178d57600080fd5b50565b60008135905061179f81611779565b92915050565b600080600080600060a086880312156117c1576117c06111fc565b5b600086013567ffffffffffffffff8111156117df576117de611201565b5b6117eb888289016116ef565b955050602086013567ffffffffffffffff81111561180c5761180b611201565b5b611818888289016116ef565b945050604086013567ffffffffffffffff81111561183957611838611201565b5b611845888289016116ef565b935050606061185688828901611227565b925050608061186788828901611790565b9150509295509295909350565b600082825260208201905092915050565b7f46696c6520696e646578206f7574206f6620626f756e64730000000000000000600082015250565b60006118bb601883611874565b91506118c682611885565b602082019050919050565b600060208201905081810360008301526118ea816118ae565b9050919050565b7f4e487b7100000000000000000000000000000000000000000000000000000000600052603260045260246000fd5b7f4e487b7100000000000000000000000000000000000000000000000000000000600052602260045260246000fd5b6000600282049050600182168061196757607f821691505b60208210810361197a57611979611920565b5b50919050565b7f46696c65206e616d652063616e6e6f7420626520656d70747900000000000000600082015250565b60006119b6601983611874565b91506119c182611980565b602082019050919050565b600060208201905081810360008301526119e5816119a9565b9050919050565b60008190508160005260206000209050919050565b60006020601f8301049050919050565b600082821b905092915050565b600060088302611a4e7fffffffffffffffffffffffffffffffffffffffffffffffffffffffffffffffff82611a11565b611a588683611a11565b95508019841693508086168417925050509392505050565b6000819050919050565b6000611a95611a90611a8b84611206565b611a70565b611206565b9050919050565b6000819050919050565b611aaf83611a7a565b611ac3611abb82611a9c565b848454611a1e565b825550505050565b600090565b611ad8611acb565b611ae3818484611aa6565b505050565b5b81811015611b0757611afc600082611ad0565b600181019050611ae9565b5050565b601f821115611b4c57611b1d816119ec565b611b2684611a01565b81016020851015611b35578190505b611b49611b4185611a01565b830182611ae8565b50505b505050565b600082821c905092915050565b6000611b6f60001984600802611b51565b1980831691505092915050565b6000611b888383611b5e565b9150826002028217905092915050565b611ba182611269565b67ffffffffffffffff811115611bba57611bb96115f2565b5b611bc4825461194f565b611bcf828285611b0b565b600060209050601f831160018114611c025760008415611bf0578287015190505b611bfa8582611b7c565b865550611c62565b601f198416611c10866119ec565b60005b82811015611c3857848901518255600182019150602085019450602081019050611c13565b86831015611c555784890151611c51601f891682611b5e565b8355505b6001600288020188555050505b505050505050565b6000611c7582611269565b611c7f8185611874565b9350611c8f818560208601611285565b611c98816112af565b840191505092915050565b6000606082019050611cb860008301866115be565b8181036020830152611cca8185611c6a565b90508181036040830152611cde8184611c6a565b9050949350505050565b7f4e487b7100000000000000000000000000000000000000000000000000000000600052601160045260246000fd5b6000611d2282611206565b9150611d2d83611206565b9250828203905081811115611d4557611d44611ce8565b5b92915050565b600081549050611d5a8161194f565b9050919050565b818103611d6f575050611e47565b611d7882611d4b565b67ffffffffffffffff811115611d9157611d906115f2565b5b611d9b825461194f565b611da6828285611b0b565b6000601f831160018114611dd55760008415611dc3578287015490505b611dcd8582611b7c565b865550611e40565b601f198416611de3876119ec565b9650611dee866119ec565b60005b82811015611e1657848901548255600182019150600185019450602081019050611df1565b86831015611e335784890154611e2f601f891682611b5e565b8355505b6001600288020188555050505b5050505050505b565b7f4e487b7100000000000000000000000000000000000000000000000000000000600052603160045260246000fd5b6000604082019050611e8d60008301856115be565b8181036020830152611e9f8184611c6a565b90509392505050565b7f46696c652049442063616e6e6f7420626520656d707479000000000000000000600082015250565b6000611ede601783611874565b9150611ee982611ea8565b602082019050919050565b60006020820190508181036000830152611f0d81611ed1565b9050919050565b7f46696c652073697a65206d7573742062652067726561746572207468616e2030600082015250565b6000611f4a602083611874565b9150611f5582611f14565b602082019050919050565b60006020820190508181036000830152611f7981611f3d565b9050919050565b611f8981611349565b82525050565b600060c0820190508181036000830152611fa98189611c6a565b90508181036020830152611fbd8188611c6a565b90508181036040830152611fd18187611c6a565b9050611fe060608301866115be565b611fed60808301856115be565b611ffa60a0830184611f80565b97965050505050505056fea264697066735822122060105e6ca14cf8ca9f36cacc1f9d9bb038f009e1cfe8b5089dd34854138385f864736f6c63430008130033",
  "linkReferences": {},
  "deployedLinkReferences": {}
}